:020000040800F2
:10000000E804002005010008EB17000801170008AC
:10001000E91700082D030008071A00080000000077
:10002000000000000000000000000000EF170008C2
:100030006703000800000000ED170008F117000832
:100040001F0100081F0100081F0100081F01000810
:100050001F0100081F0100081F0100081F01000800
:100060001F0100081F0100081F01000831030008DC
:100070001F0100081F0100081F0100081F010008E0
:100080001F0100081F0100081F0100081F010008D0
:100090001F0100081F0100081F0100081F010008C0
:1000A0001F0100081F0100081F0100081F010008B0
:1000B000751800081F0100081F0100081F01000833
:1000C0001F0100081F0100081F0100081F01000890
:1000D0001F0100081F0100081F0100081F01000880
:1000E0001F0100081F0100081F010008DFF810D0E1
:1000F00000F068F800480047491A0008AFF3008094
:10010000E80400200648804706480047FEE7FEE76F
:10011000FEE7FEE7FEE7FEE7FEE7FEE7FEE7FEE7B7
:1001200071180008ED000008D2B201E000F8012BC0
:10013000491EFBD270470022F6E710B513460A4667
:1001400004461946FFF7F0FF204610BD9623002213
:10015000114600F009B80029A8BF7047401C4900AB
:1001600008BF20F00100704710B4B0FA80FC00FA1C
:100170000CF050EA010404BF10BC704749B1CCF147
:10018000200421FA04F411FA0CF118BF01212143D3
:100190000843A3EB0C01CB1D4FEA00614FEA10208E
:1001A00042BF002010BC704700EBC3501044002930
:1001B000A4BF10BC7047401C490008BF20F00100DC
:1001C00010BC7047064C074D06E0E06840F00103A4
:1001D00094E8070098471034AC42F6D3FFF78AFF43
:1001E000CC1A0008EC1A000870B504460068816853
:1001F000C943C90717D1816821F00101816000F06E
:1002000093FC05460AE000BF00F08EFC401B02286C
:1002100004D920688068C043C00706D02068806881
:10022000C043C007F0D0002070BDA06A40F01000AD
:10023000A062E06A40F00100E062012070BD10B5EC
:100240000146406A826A12F0500F05D0006A026BC4
:10025000BDE8104008461047816A41F40071816290
:1002600001688968C1F3424107290CD1017B51B96A
:10027000816A21F480718162816AC90403D4816A30
:1002800041F00101816200F0EFF810BD10B5406A45
:10029000816A41F040018162C16A41F00401C1629A
:1002A00000F0E4F810BD10B5406A00F0DEF810BDB3
:1002B000F8B500260446009600688168C943C9075E
:1002C0002DD0816841F0010181601648164900680F
:1002D000B0FBF1F000E0401E00900028FBD100F0E0
:1002E00023FC054616E000BF00F01EFC401B022860
:1002F00010D920688068C043C0070BD0A06A40F0C6
:100300001000A062E06A40F00100E06284F824601E
:100310000120F8BD20688068C043C007E4D10020F8
:10032000F8BD00001C00002040420F00FEE7000066
:10033000014800F0F9B90000A400002030B590F8A1
:1003400040500124AC40C56B6C6004686360436836
:10035000102B036803D099600068C26030BD9A60BA
:100360000068C16030BD704772B6FEE7F8B5002482
:10037000009490F824202546012A12D0012280F80A
:1003800024204A681F23072A0DD20668776B521E65
:1003900002EB820293409F430B6893401F437763B5
:1003A00019E00220F8BD06680D2A0AD2376BD21F69
:1003B00002EB820293409F430B6893401F433763D5
:1003C00009E0F76A0D3A02EB820293409F430B6803
:1003D00093401F43F7620A68072306680A2A0AD374
:1003E000F7680A3A02EB420293409F438B689340BE
:1003F0001F43F76008E0376902EB420293409F43D6
:100400008B6893401F4337610A68102A01D0112A74
:1004100020D1124B02689A4217D193681B0219D45B
:10042000936843F4000393600968102912D10C49C2
:100430000C4A0968B1FBF2F101EB8101490000E0CF
:10044000491E00910029FBD104E0816A41F020019E
:100450008162012480F824502046F8BD0024014028
:100460001C00002040420F0070477047704700009A
:100470002DE9F0414FF0000704003D467ED0A06A10
:10048000002628B9E66284F82460204600F07EF851
:100490002046FFF7A9FEA16AC90600D420B1A06AD0
:1004A00040F01000A06269E0A16A21F4885141F097
:1004B0000201A1626268E169237B0A4347EA4301C2
:1004C0000A43A1684FF48077B94209D0012907D0C7
:1004D0005FF0000194F814C0BCF1010F02D00AE0F3
:1004E0003946F7E7F3B1A36A43F02003A362E36A56
:1004F00043F00103E3622368D3F804C02CF4694C91
:100500004CEA010CC3F804C021688B68DFF870C0A6
:1005100003EA0C0313438B60A168B9420BD0012995
:1005200009D00CE0DFF85CC0A3690CEB43330B434C
:1005300043F40061DFE7218A0D05A5F580152168E8
:10054000CB6A23F470032B43CB62216889680E4B7E
:100550001940914208D1E662A16A21F0020141F0FE
:100560000101A162BDE8F081A06A20F0020040F024
:100570001000A062E06A40F00100E0620120F1E7B3
:10058000FDF7E1FF00E0FFFFFE0E1FFF70B586B034
:1005900000250646009501950295039500681A49C5
:1005A00088422ED11949886940F4007088618869B1
:1005B00000F400700490886940F004008861886944
:1005C000694600F004000490072000900320019089
:1005D0000F4800F0B9F9104C0E48C4E9000580201E
:1005E000C4E9025080002061800060612020C4E9DD
:1005F0000605204600F042F908B1FFF7B5FE346267
:10060000666206B070BD0000002401400010024088
:100610000008014008000240A40000202DE9F04736
:10062000894604463B4900683B4F0E1D9046884270
:1006300001D0B84207D1306810F4702F03D00125E3
:100640002846BDE8F08794F8240001280CD001204A
:1006500084F824002046FFF72BFE05004FF0000031
:1006600004D084F82400EBE70220EAE7A16A40F610
:100670000162914341F48071A1622168B94218D1AD
:10068000326812F4702F14D0A16A41F48011A16273
:100690003168490505D5A16A21F4005141F4805122
:1006A000A162A16AC9040AD5E16A21F00601E162EA
:1006B00006E0A26A22F48012A2624968E9E7E062D9
:1006C00084F82400216A15488862216A1448C862A7
:1006D000216A1448086321686FF0020008602068EE
:1006E000816841F480718160216843464A464C31FB
:1006F000206A00F0F1F820688168C1F342410729BF
:10070000816803D041F48011816099E741F4A00130
:10071000FAE7000000240140002801403F020008E1
:10072000A70200088D0200082DE9F05FC16B0C687C
:1007300001680B68D0F840C0042202FA0CF2494D5F
:10074000DFF824A1494E4A4FDFF828B1DFF828E14D
:1007500022422CD05A072AD50A68920603D40A6886
:1007600022F004020A600168A94201D1042219E0C2
:10077000514501D1402215E0B14202D14FF48062CF
:1007800010E0B94202D14FF480420BE0594502D14A
:100790004FF4802206E0714502D14FF4800201E05F
:1007A0004FF080622F4908394A60C16A3BE04FF040
:1007B000020808FA0CF818EA040F4FF000094FF08D
:1007C000010235D05FEA837832D50B689B0605D4E9
:1007D0000B6823F00A030B6080F821200168A9420E
:1007E00001D1022219E0514501D1202215E0B14288
:1007F00002D14FF4007210E0B94202D14FF400521E
:100800000BE0594502D14FF4003206E0714502D1A8
:100810004FF4001201E04FF00072124908394A60AB
:1008200080F82090816A00291AD0BDE8F05F08475F
:10083000082505FA0CF5254212D01B0710D50B68C8
:1008400023F00E030B6090F84010C36B02FA01F125
:100850005960826380F8212080F82090016BE2E7E4
:10086000BDE8F09F080002401C000240300002403A
:1008700044000240580002406C00024030B528B3EA
:1008800008C8134914221944B1FBF2F18900C1636D
:1008900010498163022141771A6843F6F0718A4357
:1008A000D0E900142143D0E902452C4321430469D7
:1008B0002143446921438469214311431960002184
:1008C0004163012242770177084630BD012030BDE7
:1008D000F8FFFDBF0000024070B5044690F820000C
:1008E000002501280CD0012084F8200094F8216014
:1008F0000020012E06D084F820000225284670BD75
:10090000022070BD022684F82160A063206806687A
:1009100026F0010606602046FFF710FDE06A002879
:100920002068016802D041F00E0106E021F00401C8
:1009300001602068016841F00A01016020680168D7
:1009400041F001010160D9E72DE9F84FDFF8B891D6
:10095000002409F1040A0AF1040B23460F270BF1C6
:10096000040EC9E00125A5402A40AA427DD1674E68
:10097000D1F804C0ACEB0608B44532D014DCBCF1AD
:10098000030F3AD009DCBCF1000F2AD0BCF1010FF3
:100990001CD0BCF1020F31D11DE0BCF1110F17D0FA
:1009A000BCF1120F2AD119E0B8F5881F19D006DC66
:1009B000B8F5803F15D0B8F5801F1FD111E0B8F50C
:1009C000001F0ED0B8F5041F18D10AE0CB6815E05F
:1009D000CB681B1D12E0CB6808330FE0CB680C33EB
:1009E0000CE08B682BB1012B4FF0080303D045615D
:1009F00004E0042302E0056100E00023FF2A01D89F
:100A0000064601E000F104064FEA840501D9A5F18C
:100A10002005D6F8008007FA05FC28EA0C0803FA3E
:100A200005F548EA0508C6F800804D68ED0062D576
:100A3000374DAE6946F00106AE61AD6924F003069C
:100A400005F001050095334D06EB050CDCF8085068
:100A5000A607360F07FA06F825EA0805DFF8B8807A
:100A6000404503D14FF0000817E044E0DFF8AC80C8
:100A7000404502D14FF001080FE0DFF8A480404567
:100A800002D14FF0020808E0DFF89880404502D11B
:100A90004FF0030801E04FF0040808FA06F848EAAE
:100AA0000508CCF808804D68D9F80060ED034D4684
:100AB00001D5164300E096432E604D68DAF80060D9
:100AC000AD03554601D5164300E096432E604D68B0
:100AD000DBF80060ED025D4601D5164300E0964369
:100AE0002E604D68DEF80060AD02754601D51643F4
:100AF00000E096432E60641C0D682A46E5407FF4B2
:100B000031AFBDE8F88F0000000401400000111073
:100B1000001002400000014000080140000C0140AC
:100B20000010014000140140014880687047000037
:100B300010000020024881680278114481607047EB
:100B400010000020074810B5016841F01001016055
:100B5000032000F075F8002000F006F800F024F8FB
:100B6000002010BD0020024070B50D4D04464FF42A
:100B70007A712878B1FBF0F00A490968B1FBF0F00E
:100B800000F046FB48B9102C07D200222146501E27
:100B900000F036F800206C6070BD012070BD0000D0
:100BA000100000201C0000200C4808B5816941F0AD
:100BB00001018161816901F001010091C16941F088
:100BC0008051C161C06900F08050009004484168C4
:100BD00021F0E06141F00071416008BD0010024069
:100BE00000000140002809DB00F01F0201219140B4
:100BF0004009800000F1E020C0F8001170470000BB
:100C0000F0B40E4B1B680C46C3F30223C3F1070577
:100C1000042D00D90425191D072901D2002300E065
:100C2000DB1E012606FA05F1491E214099409E402F
:100C3000761E16403143F0BC00F0E6BE0CED00E03D
:100C4000064900F0070208684FF6FF03184040EA23
:100C50000220034A10430860704700000CED00E0DA
:100C60000000FA052DE9F84305460078354CC00729
:100C700054D0E0690026C00008D4E06940F08050FC
:100C8000E061E069012600F0805000902E48016884
:100C9000C90512D40168804641F480710160FFF7F4
:100CA00043FF074605E000BFFFF73EFFC01B642877
:100CB00023D8D8F80000C005F6D5206A10F440709B
:100CC00021D0A98801F4407181421CD0206A1F49BB
:100CD000012220F440700A6000220A602062C007EE
:100CE00011D0FFF721FF074641F2883808E000BF26
:100CF000FFF71AFFC11B414502D90320BDE8F88365
:100D0000206A8007F4D5206A696820F4407008439F
:100D100020621EB1E06920F08050E06128788007F1
:100D200005D56068A96820F44040084360602878D1
:100D3000C00605D56068E96820F48000084360605B
:100D40000020DBE7001002400070004040044242F7
:100D50002DE9F0470F46050061D0434E306800F0A2
:100D60000700B84209D2306820F0070038433060ED
:100D7000306800F00700B84251D128683B4C810729
:100D800012D5400703D5606840F4E06060602878C1
:100D9000000703D5606840F4605060606068A9682F
:100DA00020F0F000084360602878C00728D0686809
:100DB000012810D02168022810D0890700292EDAD6
:100DC000616821F0030101436160FFF7ADFE8046D9
:100DD00041F288390DE021688903EFE78901EDE7E9
:100DE000FFF7A2FEA0EB0801494502D90320BDE8A8
:100DF000F0876068696800F00C00B0EB810FEFD1FC
:100E0000306800F00700B8420BD9306820F00700C6
:100E100038433060306800F00700B84201D001204C
:100E2000E5E72878400705D56068E96820F4E060C8
:100E3000084360602878000706D56068296920F4B7
:100E4000605040EAC100606000F018F86168084A2C
:100E5000C1F30311515CC8400649086006480068A8
:100E6000FFF782FE0020C2E700200240001002408F
:100E7000BC1A00081C0000201400002013A185B03B
:100E80000FC98DE80F0015A0154A0068049051683D
:100E900001F00C00042804D0082804D0114805B043
:100EA00070471148FBE7C1F38343C9031DF80300F2
:100EB00009D5516804AAC1F34041515C0A4A504324
:100EC000B0FBF1F0EBE709494843E8E7020304050A
:100ED000060708090A0B0C0D0E0F10100102000086
:100EE0000010024000127A000024F40000093D00C6
:100EF0002DE9F84F040070D02078C04DC00749D0CC
:100F00006868C0F38100012807D06868C0F38100D9
:100F1000022809D16868C00306D52868800339D53E
:100F200060680028E7D035E06068B0F5803F0BD0FE
:100F300010B1B0F5A02F11D0286820F480302860BF
:100F4000286820F4802002E0286840F4803028607F
:100F5000606890B1FFF7E8FD06460AE0286840F4B3
:100F600080202860F0E700BFFFF7DEFD801B6428CB
:100F700073D828688003F7D50CE0FFF7D5FD064647
:100F800005E000BFFFF7D0FD801B6428F0D828687B
:100F90008003F7D420789A4E80074FF001094FF074
:100FA000000839D5686810F00C0F07D06868C0F3E6
:100FB0008100022809D16868C00306D42868800728
:100FC00014D52069012808D110E02069B0B1C6F815
:100FD0000090FFF7A9FD074605E00AE1FFF7A4FD31
:100FE000C01B0228C4D828688007F7D52868616923
:100FF00020F0F80040EAC10028600DE0C6F800804B
:10100000FFF792FD074604E0FFF78EFDC01B0228A4
:1010100023D828688007F7D4207800072CD5794892
:10102000A169D9B1C0F80090FFF77EFD074604E042
:10103000FFF77AFDC01B02280FD8686A8007F7D532
:1010400071484FF4FA510068B0FBF1F0009000BF16
:101050000098411E0091FAD20EE080E0C0F80080B6
:10106000FFF762FD074604E0FFF75EFDC01B0228A4
:1010700075D8686A8007F7D42078400760D5E8699A
:101080000027C00008D4E86940F08050E861E869B2
:10109000012700F0805000905C480168C90513D416
:1010A0000168834641F480710160FFF73DFD82468F
:1010B00006E000BFFFF738FDA0EB0A0064284ED819
:1010C000DBF80000C005F5D5E06801280AD008B1BA
:1010D000052813D0286A20F001002862286A20F031
:1010E000040002E0286A40F001002862E06841F252
:1010F000883B98B1FFF718FD82460BE0286A40F064
:1011000004002862EEE700BFFFF70EFDA0EB0A0126
:1011100059455AD8286A8007F6D50CE0FFF704FD38
:10112000824605E0FFF700FDA0EB0A0159454CD8C7
:10113000286A8007F6D41FB1E86920F08050E86182
:10114000E06988B36968C1F38101022944D00228AB
:10115000C6F8608004D0FFF7E7FC044638E034E0CE
:10116000FFF7E2FC074604E0FFF7DEFCC01B0228A5
:101170002BD828688001F7D4206AB0F5803F05D1CC
:101180006868A16820F4003008436860D4E9080169
:101190000843696821F4741108436860C6F86090D8
:1011A000FFF7C2FC044606E025E000BFFFF7BCFCE9
:1011B000001B022809D828688001F7D51BE000BF72
:1011C000FFF7B2FC001B022802D90320BDE8F88F0C
:1011D00028688001F4D40EE00128F7D06868226AFC
:1011E00000F48031914204D1616A00F470108842A9
:1011F00001D00120EAE70020E8E7000000100240EB
:1012000000004242800442421C0000200070004066
:1012100010B5401EB0F1807F01D3012010BD4FF00A
:10122000E02460610F21601700F0EEFB0020A06158
:1012300007202061002010BD7047704770B590F8FE
:101240003C20012A26D0012480F83C40022280F86C
:101250003D2003685A689D6822F070060A68324390
:101260005A600D4B02689A4208D0B2F1804F05D007
:101270000A4B9A4202D00A4B9A4204D1496825F09F
:1012800080031943916080F83D40002180F83C10B4
:10129000084670BD022070BD002C014000040040D3
:1012A0000008004070472DE9F041054690F83C00E9
:1012B0000C46012836D0012085F83C008AB3042A68
:1012C00042D02868082A51D0D4E90023E168066A90
:1012D00026F480560662C669076A26F4407646EA16
:1012E00003234FF6FF7606EA013123F470431943D6
:1012F0004FF4005627F4005306EA02321A43C16144
:1013000002622868C16921F44061C1612868C1692D
:10131000A26841EA0221C161002085F83C00BDE8D5
:10132000F08101E00220FAE7D4E90012E3682868BE
:1013300000F022FB2868816921F00C018161286896
:101340008169A26811430FE0D4E90012E3682868BC
:1013500000F03EFB2868816921F4406181612868C2
:101360008169A26841EA02218161D5E7D4E90027B9
:10137000267B016A21F480710162C169036A21F050
:101380000301394321F0F00731074FF4007647EAB3
:10139000116123F4007306EA02221A43C16102625A
:1013A0002868C16921F00C01C1612868C169A2687F
:1013B0001143B0E710B5040003D094F83D0010B11C
:1013C00007E0012010BD002084F83C00204600F01A
:1013D0001FF8022084F83D00211D206800F088FAE3
:1013E000012084F8460084F83E0084F83F0084F829
:1013F000400084F8410084F8420084F8430084F8F7
:10140000440084F8450084F83D00002010BD000031
:1014100000B585B00021009101910291039100680F
:10142000B0F1804F28D11548C16941F00101C16177
:10143000C16901F001010491816941F004018161F8
:101440008069694600F0040004904FF40040009069
:101450000B48FFF779FA0B48416821F4407141F0DD
:10146000E06141F480714160002211461C20FFF7C9
:10147000C7FB1C20FFF7B6FB05B000BD0010024003
:10148000000801400000014010B5044651B1042994
:101490000DD0082910D094F8410094F84520012877
:1014A00011D10EE094F83E0094F84220F7E794F84A
:1014B0003F0094F84320F2E794F8400094F8442069
:1014C000EDE7012A01D0012010BD022051B104290D
:1014D00011D0082918D084F8410084F845000C295F
:1014E0001BD136E084F83E0084F842002068C268D0
:1014F00042F0020210E084F83F0084F843002068C4
:10150000C26842F0040207E084F8400084F8440016
:101510002068C26842F00802C2600122206800F020
:101520001DFA0E492068884208D0B0F1804F05D0DE
:101530000B49884202D00B49884204D1816801F0EE
:101540000701062903D0016841F001010160002074
:1015500010BD2068C26842F01002DDE7002C014097
:10156000000400400008004070B5044600680169AE
:101570004FF00005C943890715D4C168C9438907DD
:1015800011D4E91E0161012020772068806980075D
:10159000204602D0FFF786FE04E000F098F82046CF
:1015A00000F096F8257720680169C943490717D4E8
:1015B000C168C943490713D46FF0040101610220D7
:1015C00020772068806910F4407F204602D0FFF722
:1015D00069FE04E000F07BF8204600F079F82577FA
:1015E00020680169C943090716D4C168C9430907BE
:1015F00012D46FF008010161042020772068C069CF
:101600008007204602D0FFF74DFE04E000F05FF8AF
:10161000204600F05DF8257720680169C943C906B6
:1016200017D4C168C943C90613D46FF01001016112
:10163000082020772068C06910F4407F204602D03F
:10164000FFF730FE04E000F042F8204600F040F8DA
:10165000257720680169C943C90708D1C168C94312
:10166000C90704D1891E0161204600F032F82068C4
:101670000169C943090609D4C168C943090605D4EB
:101680006FF0800101612046FFF7D6FD20680169F7
:10169000C943490609D4C168C943490605D46FF056
:1016A00040010161204600F02AF820680169C94321
:1016B00089060BD4C168C943890607D46FF020019D
:1016C00001612046BDE87040FFF7B7BD70BD7047AF
:1016D000704770470246002041B1042909D008290B
:1016E0000AD00C2901D11068006C70471068406B5B
:1016F00070471068806B70471068C06B7047704708
:10170000FEE70000FEB500241B480094019419492F
:101710000294016089158160012505730475032613
:1017200006614FF460214460C161FEF7A1FE08B17B
:1017300072B6FEE7CDE9004569460F480294FEF710
:1017400015FE08B172B6FEE70224CDE900546946E1
:101750000948FEF70BFE08B172B6FEE7CDE9004678
:1017600069460548FEF702FE002801D072B6FEE782
:10177000FEBD0000002401402C00002010B586B002
:1017800000241848059404940094019402944FF0A6
:101790008041039401604721C0E901144FF6FF71B5
:1017A000C0E903148461FFF705FE08B172B6FEE7D5
:1017B000049404A90B480594FFF740FD08B172B6E4
:1017C000FEE70120CDE90040029400226946054869
:1017D0000394FFF768FD002801D072B6FEE706B05B
:1017E00010BD00005C000020FEE7FEE77047704778
:1017F000FFF7A0B930B593B028216846FEF79BFCEF
:1018000014210AA8FEF797FC0025012108040F9572
:101810001095CDE900101195420012950292022414
:101820000491CDE907404FF4E01009906846FFF7B6
:101830005FFB08B172B6FEE70AA90F2081E831000C
:101840004FF48060CDE90D0502210AA8FFF780FA68
:1018500008B172B6FEE74FF4004011900F940FA844
:10186000FFF700FA002801D072B6FEE713B030BDD2
:10187000704700002DE9F0411748FFF775FE174E3D
:10188000174F4FF000013078002813480DD0FFF7B4
:1018900021FF144D0024144A286034703968134E17
:1018A000884209D9A0EB01000EE0FFF713FF386072
:1018B00001203070BDE8F0810BD24FF6FF73A3EB2F
:1018C0000101084400F10100B2FBF0F0FEF73EFC1C
:1018D00030603C602C60EDE75C0000200C000020D4
:1018E000000000200400002040420F0008000020FB
:1018F000F0B50268164B174C174D4FF080479842D1
:1019000005D0B84203D0A04201D0A84203D122F0B2
:1019100070064A683243984205D0B84203D0A042CC
:1019200001D0A84203D122F44074CA6822434C6912
:1019300022F08002224302608A68C2620A688262E0
:10194000984201D10969016301214161F0BD0000A4
:10195000002C0140000400400008004010B501F0D8
:101960001F030121046A99408C430462016A9A4072
:101970001143016210BD000070B5046A24F0010437
:1019800004628469056A0F4EB04208D0B0F1804FFE
:1019900005D00D4EB04202D00C4EB04203D124F01F
:1019A0000304144301E044F001041A0724F0F00496
:1019B00044EA126225F00A0301F00A011943826128
:1019C000016270BD002C014000040040000800408E
:1019D00030B5046A24F0100404628469056A24F4B2
:1019E000407444EA022222F470444FF6FF7202EA85
:1019F00003322243A02425F0A00304EA0111194375
:101A00008261016230BDFEE70907090E002804DB90
:101A100000F1E02080F80014704700F00F0000F1A2
:101A2000E02080F8141D704702E008C8121F08C1AA
:101A3000002AFAD170477047002001E001C1121F4F
:101A4000002AFBD17047000008B5FFF77BF8FFF7CD
:101A5000D1FE1848816941F020018161816901F05E
:101A600020010091816941F004018161816901F0E7
:101A700004010091416941F0010141614069002286
:101A800000F00100009011460B20FFF7B9F80B2081
:101A9000FFF7A8F8FFF736FEFFF770FE06490322AE
:101AA00001F10C00FEF7BAFD034800213C30FFF7BE
:101AB000EBFCFEE7001002402000002000000000C8
:101AC000000000000102030406070809EC1A0008E0
:101AD0000000002020000000281A00080C1B00084D
:101AE00020000020C8040000381A00080000000090
:101AF00000000000000000000000000001000000E5
:0C1B000010000000000000000024F400B1
:04000005080000ED02
:00000001FF
